:100000000C9423060C9440060C9440060C949632F3
:100010000C9440060C9440060C9440060C94400648
:100020000C9440060C9440060C94A01C0C945C1C90
:100030000C94B9290C9440060C9440060C9440068C
:100040000C9440060C9440060C9440060C94400618
:100050000C9440060C94791D0C9440060C944006B8
:100060000C9440060C9440060C9440060C944006F8
:100070000C9440060C9440060C9440060C944006E8
:100080000C9440060C9440060C9440060C944006D8
:100090000C9440060C9440060C9440060C944006C8
:1000A0000C9440060C9440060C944006050109028D
:1000B000A10185020901A1000509190129081500FE
:1000C0002501950875018102050109300931158165
:1000D000257F95027508810609381581257F9501D0
:1000E00075088106050C0A38021581257F95017572
:1000F000088106C0C00660FF0961A1010962150000
:1001000026FF009520750881020963150026FF006F
:10011000952075089102C005010906A1010507197E
:10012000E029E71500250195087501810295017503
:100130000881010507190029FF150026FF00950613
:100140007508810005081901290515002501950587
:1001500075019102950175039101C0000000000036
:10016000000000000000000000000000000000008F
:100170000000000000000000000000000000007E01
:100180000F00D4FFFFFFC700000078000000000050
:100190000000002A2B2800000000000000000000E2
:1001A00000000000000029000000002C1E34202167
:1001B0002224342627252E362D3738271E1F2021AE
:1001C00022232425263333362E37381F040506070D
:1001D00008090A0B0C0D0E0F101112131415161727
:1001E00018191A1B1C1D2F3130232D350405060745
:1001F00008090A0B0C0D0E0F101112131415161707
:1002000018191A1B1C1D2F3130354C00DA0281FFE2
:10021000D9F1DB20A4A62EAF00A0C0D30000A1C856
:10022000D30000AED580A81F408D1420007F3F1F53
:10023000643214783C1E1E140A05000101010101FC
:10024000010101010202020202020202020303038F
:10025000030303030304040404040404050505055F
:10026000050606060606070707070708080808091F
:100270000909090A0A0A0B0B0B0C0C0C0D0D0D0ECB
:100280000E0E0F0F0F101011111112121313141460
:10029000151516161717181819191A1A1B1B1C1DD5
:1002A0001D1E1E1F2020212222232424252626272E
:1002B0002829292A2B2C2D2D2E2F30313232333460
:1002C00035363738393A3B3C3D3E3F404142434466
:1002D00045464748494A4C4D4E4F50515354555648
:1002E00058595A5B5D5E5F616264656668696B6CF4
:1002F0006D6F7072737577787A7B7D7E808283856F
:1003000087888A8C8E8F91939596989A9C9EA0A2AE
:10031000A3A5A7A9ABADAFB1B3B5B7BABCBEC0C2B8
:10032000C4C6C9CBCDCFD1D4D6D8DBDDDFE2E4E77C
:10033000E9EBEEF0F3F5F8FAFDFFFFAA7F55402256
:1003400023252628292A2C2D2F3032333536383ACA
:100350003B3D3E4042434547494A4C4E5051535520
:1003600057595A5C5E6062646668696B6D6F717341
:100370007577797B7D7F81838587898A8C8E909242
:100380009496989A9C9E9FA1A3A5A7A8AAACAEAF4D
:10039000B1B3B4B6B8B9BBBCBEBFC1C2C3C5C6C792
:1003A000C9CACBCCCDCED0D1D2D2D3D4D5D6D7D743
:1003B000D8D9D9DADADBDBDBDCDCDCDCDCDDDDDD8B
:1003C000DDDCDCDCDCDCDBDBDBDADAD9D9D8D7D787
:1003D000D6D5D4D3D2D2D1D0CECDCCCBCAC9C7C634
:1003E000C5C3C2C1BFBEBCBBB9B8B6B4B3B1AFAE72
:1003F000ACAAA8A7A5A3A19F9E9C9A989694929018
:100400008E8C8A89878583817F7D7B7977757371EF
:100410006F6D6B6968666462605E5C5A59575553CC
:1004200051504E4C4A4947454342403E3D3B3A3885
:1004300036353332302F2D2C2A2928262523220029
:10044000AF00AE6162636465666768696A6B6C6D14
:100450006E6F707172737475767778797A31323322
:1004600034353637383930524542545F2D3D5B5D67
:100470005C233B27602C2E2F20202700204B0020C0
:100480002043004B6579203A202052002020440070
:1004900030302020530020202020204350490042AB
:1004A000616C6C3A004C617965723A00808182839C
:1004B0008485868788898A8B8C8D8E8F9091929384
:1004C00094A0A1A2A3A4A5A6A7A8A9AAABACADAECF
:1004D000AFB0B1B2B3B4C0C1C2C3C4C5C6C7C8C946
:1004E000CACBCCCDCECFD0D1D2D3D4002B281400C0
:1004F0001A00080015001700292104001600070043
:1005000009000A43E1001D001B0006001900050058
:100510000000E200E3002C422C411B042D001300DC
:1005200012000C0018001C00340033000F000E00F5
:100530000D000B00D10038433700360010001100C9
:100540000000E6000100010028382A4135281E027B
:100550001F0220022102220229210100D2005200A2
:10056000D100E300E1000100500051004F00010004
:100570000000E200E3000100010001002E0027025C
:10058000260225022402230230002F004F005200D1
:100590005100500001003100010001000100010084
:1005A0000000E6000100010028382A0035020100A1
:1005B00001000100010001002921010001000100EA
:1005C00001000100E1000100010001000100010043
:1005D0000000E200E3000100010001002E02010022
:1005E000260025002400010030022F0223002200F3
:1005F000210001000100310220001F001E00010047
:100600000000E70001000100270001002B283A004C
:100610003B003C003D003E0029210100D200520079
:10062000D100E300E1000100500051004F00010043
:100630000000E200E300010001000100440043006B
:100640004200410040003F00450001004F005200C1
:100650005100500001000100D500D400010001004C
:10066000000001000100010028382A0009025B0097
:10067000030100A0FA09040000010301010009219F
:10068000110100012244000705810308000109044B
:1006900001000203000000092111010001222200D3
:1006A0000705820320000107050303200001090458
:1006B000020001030000000921110100012249008C
:1006C0000705840320000112010002000000085702
:1006D00059000400010102000114034B0065007978
:1006E00000620061006C006C0034003400000010F7
:1006F0000359006F0077006B006500650073000010
:1007000000040309040000000000003E5B4F5B3E54
:10071000003E6B4F6B3E001C3E7C3E1C00183C7E36
:100720003C18001C577D571C001C5E7F5E1C00009F
:10073000183C180000FFE7C3E7FF0000182418006A
:1007400000FFE7DBE7FF0030483A060E0026297974
:10075000292600407F05050700407F05253F005AF8
:100760003CE73C5A007F3E1C1C0800081C1C3E7FD6
:100770000014227F2214005F5F005F5F0006097F84
:10078000017F00006689956A006060606060009487
:10079000A2FFA2940008047E04080010207E20100E
:1007A0000008082A1C0800081C2A0808001E10104F
:1007B0001010000C1E0C1E0C0030383E38300006A5
:1007C0000E3E0E060000000000000000005F00006A
:1007D00000000700070000147F147F1400242A7F04
:1007E0002A12002313086462003649562050000084
:1007F0000807030000001C224100000041221C00E9
:10080000002A1C7F1C2A0008083E0808000080708F
:1008100030000008080808080000006060000020A0
:1008200010080402003E5149453E0000427F40004E
:10083000007249494946002141494D3300181412BC
:100840007F10002745454539003C4A494931004160
:100850002111090700364949493600464949291EF0
:1008600000000014000000004034000000000814E4
:100870002241001414141414000041221408000230
:1008800001590906003E415D594E007C1211127C4F
:10089000007F49494936003E41414122007F4141A4
:1008A000413E007F49494941007F09090901003E55
:1008B00041415173007F0808087F0000417F4100DB
:1008C000002040413F01007F08142241007F40404A
:1008D0004040007F021C027F007F0408107F003E22
:1008E0004141413E007F09090906003E4151215E18
:1008F000007F091929460026494949320003017F32
:100900000103003F4040403F001F2040201F003FA8
:100910004038403F00631408146300030478040364
:10092000006159494D4300007F41414100020408E4
:10093000102000004141417F0004020102040040F8
:100940004040404000000307080000205454784015
:10095000007F284444380038444444280038444444
:10096000287F0038545454180000087E09020018EB
:1009700024241C78007F080404780000447D400093
:10098000002040403D00007F102844000000417FCF
:100990004000007C04780478007C08040478003867
:1009A00044444438007C1824241800182424187C5B
:1009B000007C080404080048545454240004043FF4
:1009C0004424003C4040207C001C2040201C003C73
:1009D0004030403C004428102844004C9090907CCB
:1009E000004464544C440000083641000000007785
:1009F0000000000041360800000201020402003C31
:100A00002623263C0000000000000000000000003B
:100A100000000000000000000000000000C0F0F82E
:100A20008C86C6E7FFFFFFFFFFFFFEFCFCF8E080BF
:100A3000000000F0F0F00000C0E0F0707000000076
:100A400000000000000000000000000000000000A6
:100A5000000000F8F8F800000000000000000000AE
:100A6000000000000000000000F8F8F80000F8F8AE
:100A7000F80000000000000000000000000000007E
:100A8000000000E0F0F0F0E0ECEEF7F37020007C06
:100A90007C7C7E007E7E7E7F7F7F000080C0E07E4B
:100AA0005B4F5BFEC00000C000DCD7DEDEDED7DCC3
:100AB00000C0000000000000000000000000000076
:100AC0000000000000000000000000000000000026
:100AD00000000000000080E07078686C64C7C7C741
:100AE000C7C7C7E73F1F0F3FFFFFFFFFFFFF3F0FD6
:100AF000000000FFFFFF1E3FFFF3E1800000F8FC55
:100B0000FE3636363EBCB8000E3EFEF080F0FE3EAD
:100B10000E0000FFFFFF060606FEFEFC7000E6F674
:100B2000F63636FEFEFC000000FFFFFF0000FFFF70
:100B3000FF000000000000000000000000000000B6
:100B40000000000F1F3F7F7F7F7F7F3F1E0C001F35
:100B50001F1F3F003F3F3F7F7F7F00307B7F78300C
:100B6000202030787F3B0003000F7F0F0F0F7F0F97
:100B70000003000000000000000000000000000072
:100B80000000000000000000000000000000000065
:100B900000000000003C7F6360E0C0C0C0C0C0C077
:100BA000C0C0FFFFC06030180F0303030100000046
:100BB000000000030303000000030303030001031C
:100BC00003030303030301007070393F1F07010093
:100BD00000000001030303030303030100000103FA
:100BE00003030303030100000003030300000303E6
:100BF00003000000000000000000000000000000F2
:100C000000000000000000000000000000000000E4
:100C100000000000000000000000000000000000D4
:100C200000000000000000000000000000000000C4
:100C300000000000000000000000000000000000B4
:100C400000000000000011241FBECFEFDAE0DEBF7D
:100C5000CDBF11E0A0E0B1E0E8E7FAE602C0059000
:100C60000D92A43CB107D9F726E0A4ECB1E001C095
:100C70001D92AB32B207E1F70E94E0290C94F234E6
:100C80000C940000482F2091FB039091C20357E081
:100C9000291302C080E0089530E0529FF001539F75
:100CA000F00D1124ED53FC4F8181681306C0808143
:100CB000481303C085818111EECF2F5F3F4F27700E
:100CC000E7CFE8EDF0E080818E7F80831092E20034
:100CD0001092DA001092E100A0EEB0E08C918160F9
:100CE0008C9380818F77808319BCA7EDB0E08C91C5
:100CF0008E7F8C9380818F7E80831092AA030895CB
:100D00002091E4003091E50095E6A9012091EC00E6
:100D1000822F817020FF06C08091E80080FF06C00E
:100D200080E008952091E80022FD1AC08091B80368
:100D3000882389F0853089F08091EB0085FD0FC014
:100D40002091E4003091E50042175307F9F29150E9
:100D5000E1F684E0089582E0089583E0089581E05B
:100D600008958091BA0387FF13C08091E80082FF45
:100D700006C08091E8008B778093E80004C08091E2
:100D8000B8038111F2CF08958091B8038823D9F375
:100D90008091E80080FFF8CF8091E8008E77ECCF5B
:100DA000982F9093E900242F762F50E0891731F087
:100DB0007091EC002091ED005091F00021FD07C0F2
:100DC0009F5F973071F78093E90081E0089530913B
:100DD000EB003E7F3093EB003091ED003D7F309390
:100DE000ED003091EB0031603093EB007093EC003C
:100DF0002093ED005093F0002091EE0027FDE0CF0E
:100E000080E00895B0E0A0E0E8E0F7E00C94D03393
:100E1000C8EDD0E088818F7E8883E7EDF0E08081A7
:100E20008160808384E082BF81E08093AA0388810F
:100E30008E7F888302EE10E0F80110821092DA00B3
:100E400081EEC82ED12CF601108288818F7788839D
:100E500088818068888388818F7D888319BC1092FF
:100E6000B8031092B9031092B7031092B60390EE34
:100E7000E92EF12CF70180818B7F8083888181604E
:100E8000888342E060E080E00E94D006F601808125
:100E90008E7F8083F801808181608083808188607B
:100EA0008083F70180818E7F808388818061888341
:100EB000CDB7DEB7E8E00C94EC33FC018091C003C1
:100EC0009091C10386179707A0F06115710529F469
:100ED0009091E8009E779093E80090E0611571058D
:100EE00051F4911108C08091E80082FF34C080E085
:100EF0000895BC01F2CF8091B8038823C1F18530F9
:100F0000C1F18091E80083FD30C08091E80082FD4E
:100F1000EACF8091E80080FFE1CF8091F30020913B
:100F2000F200382F6115710519F02830310558F09D
:100F300091E02830310509F090E02091E8002E770B
:100F40002093E800CBCF81918093F100615071092B
:100F50002F5F3F4FE7CF8091B803882341F0853062
:100F600041F08091E80083FFBECF81E0089582E0E8
:100F7000089583E00895089508958091AD0308953C
:100F800087E797E7909301088093000888E19AE04B
:100F90000FB6F894A895809360000FBE9093600000
:100FA000FFCF2FB7F8946091A6037091A7038091AB
:100FB000A8039091A9032FBF08959C01FC013296CC
:100FC0009FEF80E04191461751F09F3F19F4411186
:100FD00001C0982F8F5F8630A9F79F3F09F40895CD
:100FE000290F311D97FD3A95F90162830895FC019F
:100FF000680F791F8FEF91E32191822728E030E07D
:1010000087FF09C0880F892721503109C9F7E617E2
:10101000F70791F70895880FF7CFFA01811101C002
:10102000FB0109950895E8EBF2E01182828184606A
:101030008283089580917003982F9E7F61F4817060
:1010400082608093700380917303873918F086E97A
:101050008093730308958833B0F381708663F1CF72
:10106000AF92BF92DF92EF92FF920F931F93CF93B5
:10107000DF93082F162FE901E42FF0E0E65CFD4F27
:10108000611110C0E4915E2F4E2F4983E8835A838B
:10109000DF91CF911F910F91FF90EF90DF90BF9064
:1010A000AF900895E62EF12C4491D42EE42FF0E079
:1010B00026E0829FC00111242FEF30E0B9010E9489
:1010C000B233802F90E0880F991F55E5569FD001CD
:1010D000579FB00D11248A1B9B0B982F990F890FD6
:1010E0005901AE18BF08AE9ED001AF9EB00DBE9E96
:1010F000B00D11245B2F189F80011124012F11279F
:101100005901A01AB10AAE9E8001AF9E100DBE9E7D
:10111000100D11245901A81AB108AE9CC001AF9C52
:10112000900DBE9C900D1124892F9927281B390BF7
:101130002E9FC0012F9F900D3E9F900D1124E92FEF
:1011400062307105A1F050F46115710509F49DCF6D
:101150006130710581F0EB2F512F97CF643071050D
:1011600069F080F06630710509F48FCFF4CFE42F79
:101170004B2F592F8ACFE42F412F87CFEB2F542F9E
:10118000492F83CF4B2F5D2DE12F7FCFCF93DF935F
:10119000ECEFF3E083819481A581B681E901888336
:1011A0009983AA83BB831482138216821582DF91EE
:1011B000CF91089580E0089563E070E080E292E0CE
:1011C0000E94F70790911F02891318C0E091200236
:1011D000EB30A4F488E0E802F0011124EF5FFE4F49
:1011E0000680F781E02D309749F023E432E040910A
:1011F000220263E272E08091210209950895E1E004
:10120000F1E0ABE0B2E056968C91569780A75796E6
:101210008C9183AF0895F894E82FE295EF70F0E099
:1012200031A1282F2F7081E090E001C0880F2A950E
:10123000EAF7982F9095932391A392A1892B82A3EB
:10124000789408959091820292FF10C041E0282F77
:101250002471243009F040E031E0282F2871283033
:1012600009F030E0431711F02CE0822793FF10C003
:1012700041E0282F2471243109F040E031E0282F8B
:101280002871283109F030E0431711F02CE0822753
:101290003091830230FF10C051E0282F217121309E
:1012A00009F050E041E0282F2871283009F040E093
:1012B000541711F029E0822731FF10C041E0282F98
:1012C0002171213109F040E031E0282F28712831C7
:1012D00009F030E0431711F029E0822794FD877E62
:1012E000089582389105B9F1B0F48133910509F47C
:1012F0007DC048F48932910509F46DC08A329105A8
:1013000009F47BC008958533910509F45FC08933E2
:10131000910509F10895833E9105D9F138F4803E95
:10132000910529F1823E910579F10895863E910556
:10133000D9F1873E910509F43EC0843E910541F5FF
:101340002091830221FF24C08091820284FD19C074
:1013500087EE90E0089520918202237009F05AC030
:101360002091830223FF14C089E290E00895209128
:10137000820220FD38C03091830230FF09C024FF73
:1013800043C090E080E008952091820222FDF7CFD3
:1013900008952091820222FD3AC03091830230FDEF
:1013A00039C024FFF5CFEDCF2091820223FFF0CF8B
:1013B00024FDE7CFCDCF2091820223FD2EC03091B6
:1013C000830231FFEECF84EE90E0089520918202F7
:1013D00025FFDECFC9CF2091820225FD21C02091BB
:1013E000830223FFD5CF89E390E0D2CF2091820200
:1013F00026FFCECF8AE290E008952091820226FF58
:10140000C7CF81E390E0089583EE90E0089582EEE7
:1014100090E0089580EE90E0089586EE90E00895C3
:1014200085E390E008951F93CF93DF930E947109A5
:10143000EC01C11582E5D80708F03FC0C11590E561
:10144000D90708F0C2C0C83ED105C0F4C03ED105DE
:1014500080F4C53AD10548F4C430D10550F4C13008
:10146000D10539F0D0E0C0E004C0CD3CD105D0F3C7
:10147000D065CE01DF91CF911F910895C11580E411
:10148000D80708F053C0C11590E2D90708F0B7C0DB
:10149000C11581E0D80730F38D2F0E942209182F43
:1014A000CE0199270E947109C12FD0E0DC2FCC27F3
:1014B000CC27DF71C82BD92BDCCFC03892E5D907F8
:1014C000A8F4C03682E5D80708F063C0C03492E5BE
:1014D000D90708F049C0C03282E5D80788F1CF713A
:1014E000D0E0DC2FCC27C16FD06AC3CFC03C92E5DF
:1014F000D90780F48C2F8F71C03AD24508F45EC0B2
:101500000E942209C82FD0E0DC2FCC27CC27DF7126
:10151000D062AFCFC03E82E5D80708F0A3CFDC2F62
:10152000CC27CC27DF71C06FD06AA3CFCE0199271B
:101530000E947109CC27DF70C82BD92BD06A99CFB4
:101540002C2F2695269590E2299F900111248C2F0F
:101550008370C1E0D0E002C0CC0FDD1F8A95E2F7B6
:10156000C22BD32BDD6885CF2C2F2695269527708F
:1015700080E2289F900111248C2F8370C1E0D0E07D
:1015800002C0CC0FDD1F8A95E2F7C22BD32BDC689B
:1015900070CF2C2F26952695277090E2299F9001D9
:1015A00011248C2F8370C1E0D0E002C0CC0FDD1F6E
:1015B0008A95E2F7C22BD32BDA685BCFC82FD0E035
:1015C000DC2FCC27C46FD06A54CF8C2F8F710E9430
:1015D000220955E0D695C7955A95E1F7CF70D0E02E
:1015E000DC2FCC27282F30E084FF05C044E0220FF9
:1015F000331F4A95E1F7C22BD32BD0693ACF8D2FF9
:101600008F710E942209182FCE0199270E9471091B
:10161000C12FD0E0DC2FCC27CC27DF71C82BD92BF2
:1016200077CF80959091AB0398239093AB03089567
:101630008091FB039091C203981301C008958F5FBE
:101640008770FACF292F983078F5863068F590E0CA
:1016500036E0239F800D911D1124682F677023E0D1
:10166000969587952A95E1F7FC01EE0FFF1FE80F8D
:10167000F91FE752FE4F50E040E080E0219130E05A
:10168000062E02C0369527950A94E2F7217033277B
:10169000042E01C0220F0A94EAF7822B4F5F5F4F9E
:1016A0004330510559F7089580E00895292F983067
:1016B00098F5863088F590E036E0239F800D911DE7
:1016C0001124282F277041E001C0440F2A95EAF722
:1016D00023E0969587952A95E1F7FC01EE0FFF1F11
:1016E000E80FF91FE752FE4F30E020E070E0519123
:1016F000DF011197CB01022E02C0969587950A94BF
:10170000E2F7817081958527842385278C932F5F4D
:101710003F4F2330310559F708958093FD01089517
:10172000982F92959F7011F0892F94E0282F26957D
:10173000269511F09E5F822F869509F09F5F892F75
:101740000895CF93C82F809109048C1751F00E94FF
:10175000D10760930A0470930B0480930C04909358
:101760000D04C0930904CF910895CF93C82F0E9410
:10177000900B91E0833009F090E0892F0E94A10B3B
:10178000C0937803CF9108959091780321E030E0E1
:10179000F90101C0EE0F8A95EAF7D90102C0AA0F3C
:1017A000BB1F6A95E2F7EA2B01C0220F4A95EAF7C0
:1017B000892F8E23E81305C0292B822F0E94B50B99
:1017C000089520952923F9CF21E030E001C0220FB0
:1017D0008A95EAF720958091780382230E94B50BC1
:1017E00008959091F201809589238093F201282F2A
:1017F000277069F4891759F09091830292FF07C00E
:101800008695869586950E94E40B1092F2010895C4
:1018100021E030E001C0220F8A95EAF78091780339
:10182000822B0E94B50B0895B0E0A0E0EAE1FCE055
:101830000C94D033FC01EB0190910E04911101C086
:1018400094E06081718191509B01092E02C0359511
:1018500027950A94E2F7D901092E02C0AA0FBB1FEF
:101860000A94E2F76A1B7B0B718360836281738148
:101870008B01092E02C0159507950A94E2F7D8014D
:1018800002C0AA0FBB1F9A95E2F76A1B7B0B7383FA
:10189000628381E80138BFEF1B072CF0802F0038EE
:1018A00011050CF08FE78D8321389FEF390754F134
:1018B000203831054CF5922F91959C83442319F0E3
:1018C00081958D832C830E94D1072D81211103C026
:1018D0002C812223D9F060930F047093100480931D
:1018E000110490931204809113049BE0980F973198
:1018F00020F4080F009313041D82CDB7DEB7E8E093
:101900000C94EC3321E8D7CF2FE7D5CFC0900F044C
:10191000D0901004E0901104F09012046C197D092D
:101920008E099F096436710581059105E0F21092D8
:101930001304D9CFFC01DB012281338191E82138E6
:101940008FEF38072CF0922F203831050CF09FE7ED
:1019500012969C9312972081318121388FEF38079E
:10196000A4F0203831059CF413962C93139744234C
:1019700039F0919512969C931297219513962C937A
:101980001182108213821282089521E8EDCF2FE791
:10199000EBCF8F708A3010F4805D0895895A0895D6
:1019A000382F20E287FF02C031952DE24AE0832FD5
:1019B000642F0E940934905D9093D10181110BC076
:1019C0002093D00120E22093CF0120E22093CE018A
:1019D0008EEC91E00895642F0E940934905D9093FD
:1019E000D001832F64E60E940934882361F3805D6F
:1019F0008093CF01EBCF9C01860F971F37FD07C067
:101A000077FD04C097FF02C08FEF9FE7089577FF2F
:101A1000FDCF97FDFBCF80E090E80895CF939091A4
:101A2000AD028091A602981323C08091AE02882354
:101A300021F09091A70289131BC08091AF028823E7
:101A400021F09091A802891313C08091B1028823DC
:101A500021F09091AA0289130BC09091B0029923B2
:101A600029F081E02091A902291303C080E001C080
:101A700081E0C82FC17080FF0FC0E091A303F091F7
:101A8000A403309749F082E08093AC020480F58192
:101A9000E02D8CEA92E009959091AD0286E0ECEAA7
:101AA000F2E0DF01282F1D922A95E9F79093AD020D
:101AB000A5EAB2E001900D928A95E1F781E0C111AB
:101AC00003C0911101C080E08170CF910895AEE113
:101AD000B0E0EDE6FDE00C94D6334091AC025091BD
:101AE000AD026091AE027091AF028091B002909110
:101AF000B1020E94D71A2093AC023093AD024093FA
:101B0000AE025093AF026093B0027093B10286E0D0
:101B1000ECEAF2E0DE01179601900D928A95E1F76A
:101B200086E0FE013796DE011D9601900D928A95A2
:101B3000E1F786E0FE013D96DE01119601900D92DF
:101B40008A95E1F786E0FE013196ACEAB2E00190B9
:101B50000D928A95E1F786E0ECEAF2E0DE01599613
:101B600001900D928A95E1F786E0FE017996DE01FB
:101B7000179601900D928A95E1F786E0FE0137965F
:101B8000DE01119601900D928A95E1F786E0FE0143
:101B90003196DE01539601900D928A95E1F786E029
:101BA000FE017396DE01179601900D928A95E1F77A
:101BB00086E0FE013796ACEAB2E001900D928A957C
:101BC000E1F70E940E0D811109C08091AB021092C5
:101BD000AB0281706E96E2E00C94F23381E090E00B
:101BE000F6CF2FE2280F283078F481E090E001C092
:101BF000880F2A95EAF72091AD02662331F0822BF7
:101C00008093AD020E940E0D089580958223F8CF37
:101C1000CF93DF93682F81E06A3019F06D3031F493
:101C200080E00E94960EDF91CF9108958091270663
:101C30009091280626E0FC01A1E2B6E001900D9209
:101C40002A95E1F7603E08F458C026E0FC011192A5
:101C50002A95E9F7C0912706D091280646E050E082
:101C6000BE0181E296E00E9484349E0121523440FC
:101C7000892B41F1C90145E0969587954A95E1F791
:101C800041E050E0BA0102C0660F771F8A95E2F783
:101C9000CB0160911F0470912004862B972BB90112
:101CA0006B5F7F4FE5E076956795EA95E1F702C0B7
:101CB000440F551F6A95E2F7842B952B90932004CF
:101CC00080931F042A5F3F4F40911E04642F70E0F1
:101CD000C9010E94B233481B463010F4240F311D55
:101CE000211572E0370710F030E020E02F5D3B4F08
:101CF000309328062093270696CFF6E06F9FB00119
:101D000011246B5F784F46E050E00E946E34A2CF02
:101D1000CF93DF93EC01FE018491811103C0DF9129
:101D2000CF9108950E94080E2196F5CFCF93382FBA
:101D3000E0912706F0912806E152F44020911E041C
:101D4000622F70E0CF010E94B233281B822F332311
:101D500061F066E00E94FD33C82FC15010F4CF91AE
:101D6000089580E20E94080EF8CF9F01280F311DD0
:101D70002115324018F080E0F0E0E0E08E0F9F2F58
:101D8000911D8F5D9B4F9093280680932706E7CF88
:101D90008091AB039091FC01892B8093C6019091B7
:101DA000FB01992391F0892B8093C60120E088ECF8
:101DB00091E0FC013191CF0131112F5FF1E08E3CB8
:101DC0009F07B9F721111092FB0148E050E063EF43
:101DD00071E086EC91E00E948434892BA9F088E0C0
:101DE000E6ECF1E0A3EFB1E001900D928A95E1F706
:101DF000E091A303F091A403309731F00280F381C6
:101E0000E02D86EC91E009950895E8ECF1E086E09C
:101E1000DF011D928A95E9F71092FC010E94C80E1D
:101E20000895AAE2B0E0E7E1FFE00C94D5338AEB35
:101E300093E02091F100DC012D93CD01B3E0823CD1
:101E40009B07B9F78091BB03833009F472C0B8F4E3
:101E5000813009F449C0823009F4B5C08091E800AE
:101E600083FF8DC28091BA039091BB039A3008F032
:101E700086C2E92FF0E0EC50FB4C0C942B348A30F6
:101E800009F490C08B3009F471C0893039F7809122
:101E9000BA03813219F78091BE039091BF03009776
:101EA00011F00297D9F68091E800877F8093E800CF
:101EB0008091E80082FF38C09091F3008091F20099
:101EC000029731F48091F100813011F0863021F4D5
:101ED0008091F1008093AD038091E8008B7780932F
:101EE000E8000E94B106BACF8091BA03813A09F0A6
:101EF000B5CF8091E800877F8093E8008091BE0392
:101F00009091BF03892B61F468E08EEA93E070E062
:101F10000E945D078091E8008B778093E8009ECF58
:101F200060E090E080E0F3CF8091B8038111C0CFF2
:101F300095CF8091BA03813A09F090CF8091BE038A
:101F40009091BF03892B09F089CF8091E800877FAA
:101F50008093E8008091E80080FFFCCF80917501BC
:101F60008093F1008091E8008E77B9CF8091BA0319
:101F7000813209F073CF8091BE039091BF03892B0A
:101F800009F06CCF8091E800877F8093E8000E9481
:101F9000B1068091BC03809375011092AB030E943F
:101FA000050F5CCF8091BA03813209F057CF809141
:101FB000E800877F8093E8000E94B1068091BD030E
:101FC0008093AC034BCF8091BA03813A09F046CF9E
:101FD0008091E800877F8093E8008091E80080FF8F
:101FE000FCCF8091AC03BCCF803899F0823809F0E7
:101FF000C6C18091BE038F70873008F0C0C1809346
:10200000E9008091EB0085FB882780F91092E900B8
:1020100006C08091B6039091B703911182609091B0
:10202000E800977F9093E8008093F1001092F10010
:102030008091E8008E779FC1882309F48DC182309A
:1020400009F09DC18091BC03811190C18091BE03B4
:102050008F702FEF280F263008F091C18093E90090
:102060002091EB0020FF82C1933031F48091EB008E
:1020700080628093EB007AC19091EB009061909325
:10208000EB0021E030E001C0220F8A95EAF72093AF
:10209000EA001092EA008091EB008860EACF81119B
:1020A0006EC11091BC031F778091E3008078812B73
:1020B0008093E3008091E800877F8093E8000E948E
:1020C000B1068091E80080FFFCCF8091E30080683A
:1020D0008093E30082E0111183E08093B8034FC145
:1020E0008058823008F04BC12091BC033091BD0371
:1020F0002C3DE3E03E07A1F583E08A838AE28983F1
:102100004FB7F894DE01139620E03EE051E2E32F52
:10211000F0E050935700E49120FF03C0E295EF7088
:102120003F5FEF708E2F90E0EA30C0F0C7968D933E
:102130009D932F5F243159F74FBF8091E800877F2F
:102140008093E8006AE270E0CE0101960E945D078C
:102150008091E8008B778093E80011C1C096E7CFAB
:102160008091BE039091BF03432F55274330510503
:1021700009F44AC078F54130510509F47AC08BE57D
:1021800090E0ECE6F6E04230510509F0F8C020910D
:10219000E800277F2093E8002091C0033091C1031D
:1021A0008217930708F49C0140E02115310509F0DE
:1021B00065C0411163C08091E80082FDC9CF809164
:1021C000B803882329F2853019F28091E80083FF53
:1021D000F2CFBECF4132510509F43CC04232510525
:1021E00009F0CDC08330910508F0C9C0FC01EE0FA5
:1021F000FF1FE954FE4F0190F081E02D8C549E4F5B
:10220000DC018C9190E01AC0332721303105D1F0E8
:102210002115310561F02230310509F0B0C0E9ED3A
:10222000F6E0E4918E2F90E0E9EDF6E007C0E1E002
:10223000F7E0E4918E2F90E0E1E0F7E0009709F4F9
:102240009EC0A5CFEFEEF6E0E4918E2F90E0EFEE8A
:10225000F6E0F4CF8330910508F091C0880F991F04
:10226000FC01E354FE4F0190F081E02D89E090E005
:102270008ECF82E190E0E7ECF6E089CF8091B80361
:10228000882309F465CF853009F462CF8091E80096
:1022900083FD5ECF8091E80082FD8DCF8091E800C4
:1022A00080FF83CF9091F3008091F20021153105DA
:1022B00019F08830910550F041E0089709F040E0AE
:1022C0008091E8008E778093E8006FCF449140932F
:1022D000F1003196215031090196E8CF803809F09C
:1022E0004EC08091E800877F8093E8008091B90319
:1022F0008093F1009DCE811142C01091BC03123039
:10230000F0F58091E800877F8093E8001093B9038F
:102310000E94B106112311F084E005C08091E30012
:1023200087FDFACF81E08093B80342E061EC81E061
:102330000E94D00642E261EC84E00E94D00642E2B4
:1023400061EC82E00E94D00642E260EC83E00E94F1
:10235000D0068091B80313C08091BC03813079F41A
:1023600081E0933009F080E08093B7031092E90098
:102370008091E800877F8093E8000E94B1068091F9
:10238000E80083FF0AC08091E800877F8093E8001F
:102390008091EB0080628093EB00AA96E3E00C94BE
:1023A000F133882321F00E94110B0E94C80E08957A
:1023B000882339F09091AB03982B9093AB030E9444
:1023C000C80E0895882349F19CEF980F913A80F444
:1023D000E8ECF1E02EEC31E09191891303C0DF01CC
:1023E00011971C922E173F07B9F70E94C80E089547
:1023F00090E2980F983050F4877091E001C0990FE7
:102400008A95EAF7892F0E94110BEFCF93E3980F7B
:10241000933118F460E00E94F10D0895CF93C82F16
:102420008823A9F08CEF8C0F813A00F5E8ECF1E0FD
:10243000DF018D91C81769F081E0AE3CB807C9F79C
:102440006C2F86EC91E00E94DD070E94C80ECF91B0
:1024500008958191C81303C0DF0111971C9281E098
:10246000EE3CF807B1F70E94C80EEACF80E28C0F6D
:10247000883068F4C77021E030E001C0220FCA95AF
:10248000EAF78091AB03822B8093AB03DECF83E32B
:102490008C0F8331E0F661E08C2F0E94F10DD7CFD5
:1024A0000F931F93CF93DF93EC01FC010190002069
:1024B000E9F78F0101501109C017D10728F0DF910A
:1024C000CF911F910F91089589910E94080EF4CF2A
:1024D0000F931F93CF93DF938B01EA019091B80381
:1024E000943061F58093E9008FEF9091E80081507E
:1024F00095FD06C095ED9A95F1F700008111F5CF95
:102500008091E80085FF1AC00E948006811111C0E9
:102510008091E80085FD06C08091E8008E77809369
:10252000E800F2CFF80181918F018093F1002197AB
:1025300079F78091E8008E778093E800DF91CF9162
:102540001F910F91089546E050E0BC0184E00E9485
:1025500068120895CF93DF93EC0148E050E0BC018E
:1025600081E00E94681288E0FE01AEEAB3E00190CB
:102570000D928A95E1F7DF91CF91089560917701EF
:102580008091700380FF20C08091760143E0849F9A
:10259000C001112485549D4F539A2BB1277F3BB125
:1025A00038605FB7F894FC01649FE00DF11D1124C1
:1025B000BF0168177907D1F45FBF8FE594E00197F9
:1025C000F1F700C0000008958091780190917901A1
:1025D00023E0829FF0011124E554FD4F8917A0F6F6
:1025E0001182108212828F5F3396F8CFFC014191E5
:1025F000CF01E8E03BB9000000C047FF2BB9440F12
:10260000000000C000C000C02BB900C0EA9591F7DF
:10261000D0CFEF92FF920F931F93CF93DF93EC01F4
:102620008C81811109C081E08C8310926F0392E04C
:1026300090936D0180936C01809178019091790164
:1026400023E0829FF0011124E554FD4F891758F1D2
:1026500010E003E060917A01161758F10E94BE1253
:1026600080916C0120916F03280F20936F0390914C
:102670006D01980F90936D01191654F4022E000C01
:10268000330B40917A014150550B2417350734F034
:10269000819580936C01813009F41C82CDB7DEB73F
:1026A000E6E00C94EE331182108212828F5F339633
:1026B000CDCFE12EF12C70E0C7010E94173420919C
:1026C0007801820F482F50E020916F03022E000CFA
:1026D000330BE216F306D4F020916D01022E000CAC
:1026E000330B2E153F0594F0809F90011124255443
:1026F0003D4F40917303473908F046E960917203FA
:10270000809171030E9430081F5FA4CFFA01EE0F81
:10271000FF1FE40FF51FE554FD4F11821082128256
:10272000F3CFEF92FF921F93CF93DF93EC0110E072
:10273000EE24EA94F12C60917A01161770F00E9451
:10274000BE129A818C8190FF2AC08F5F8C83DF91AB
:10275000CF911F91FF90EF90089520917801422F23
:10276000410F5527551FCA019A01220F331F280F09
:10277000391F25543D4F40917303473908F046E90E
:1027800070E0C7010E941734962F8C81609172030C
:10279000199F800D11240E9430081F5FCCCF8150FB
:1027A000D5CF9091700390FF0EC090917801209149
:1027B000790133E0939FF0011124E554FD4F921706
:1027C00018F00E94BE1208958183608342839F5F48
:1027D0003396F5CFA3E0B0E0E0EFF3E10C94D6330D
:1027E0009091700390FF0DC0473908F046E99E01B3
:1027F0002F5F3F4F0E9430084B8169818A810E9480
:10280000D1132396E2E00C94F233CF93DF93EC01E3
:10281000E0E7F3E0438162818C810E94EA138C81BE
:102820008F5F8C83DF91CF910895CF93DF93EC017D
:10283000EC81F0E0E15CFC4F4491E0E7F3E0628181
:1028400081810E94EA138C818F5F8C83DF91CF910D
:102850000895E0E7F3E080818E7F80830E94130873
:10286000E8EBF2E08281816082830E94BE120895CB
:10287000B0E0A0E0EEE3F4E10C94CE337C015B0128
:102880006A018091730201E010E08A3010F40AE0DE
:1028900010E0C1E0D0E0B501C701F6010995811152
:1028A00004C021960C171D072CF4CDB7DEB7EAE063
:1028B0000C94EA33CC9F9001CD9F300D300D112444
:1028C00090E080E045E34A95F1F700000196821719
:1028D0009307C1F7E0CF80910A02811119C082E30A
:1028E00090E02091E30027FD10C0EFE3FCE9319771
:1028F000F1F700C000000197A1F782E080930A027F
:102900000E9461061092B80303C081E080930A021E
:1029100081E090910A02913011F080E008950895CD
:102920000E946B14882359F0E091A303F091A40353
:10293000309729F00190F081E02D0995089580E00D
:1029400008950F931F930E946B14882329F00E940F
:10295000D1071F910F9108950E94D1070091740231
:10296000109175022091760230917702600F711FED
:10297000821F931FEECF54985C9A879A8F9885E0B8
:102980008A95F1F7000089B187988F9A90EA9A9515
:10299000F1F790E024E0959587952A95E1F78095E9
:1029A000909581700895CF93DF938091FC03CEE1E1
:1029B0008111CDE18091FD03D0E0882329F0809141
:1029C000FE03DEE18111DDE10E94BB1481110FC025
:1029D0008D2F80937601C0937701CD0F10927801EF
:1029E000C0937901C0937A01DF91CF91089580E07F
:1029F000F0CF8091FC03F90180830E94D3140895E5
:102A00001F93CF93DF93182FEB010E940E128FE9D3
:102A10009FE00197F1F700C000002197C1F7812FD7
:102A20000E94E211DF91CF911F9108951092AB03A4
:102A30000E94050F2FEF84E39CE0215080409040DE
:102A4000E1F700C0000088E19AE00FB6F894A8957D
:102A5000809360000FBE90936000FFCFCF93DF9311
:102A6000C9EAD1E060E0CE010E94BE342196C115D2
:102A700084E0D807B9F7DF91CF9108951F93CF93E2
:102A8000DF93122F8430E0F46830D0F44630C0F485
:102A9000C42FD0E0CC0FDD1F9CE0699FC00DD11D7D
:102AA000112490E6899FC00DD11D1124632FCE0102
:102AB00089960E94BE34612FCE018A960E94BE3450
:102AC000DF91CF911F910895AF92BF92CF92DF9285
:102AD000EF92FF921F93CF93DF938CEEC82E84E08A
:102AE000D82ED0E07601C0E014C0F50125913491D4
:102AF000412F6C2F8D2F0E943E1582E0A80EB11C35
:102B00001F5F163091F78CE0E80EF11CCF5FC830E4
:102B100019F0570110E0E9CFDF5F80E6C80ED11C45
:102B2000D43001F7DF91CF911F91FF90EF90DF90AC
:102B3000CF90BF90AF90089588E290E00E94BE349D
:102B40000895CF93C82F6FEF811163E285E290E083
:102B50000E94BE346FEFC11160E186E290E00E94F6
:102B6000BE346FEFC11160E387E290E00E94BE3493
:102B7000CF91089580E00E94A11560E070E0CB0144
:102B80000E949C150E9464150E942E1581E00E94EF
:102B9000A11508950F931F93CF93DF93843030F5E1
:102BA000683020F5463010F5C42FD0E0CC0FDD1F83
:102BB0002CE0629FC00DD11D112430E6839FC00D13
:102BC000D11D1124CE0189960E949A34082F10E05D
:102BD000102F0027CE018A960E949A349801282B44
:102BE000C901DF91CF911F910F91089590E080E08E
:102BF000F8CF462F783040F4663030F4843020F43B
:102C0000672F0E94CA15089590E080E00895CF9242
:102C1000DF92FF920F931F93CF93DF936C0100918C
:102C200078038091FD01082BC3E0D0E010E0FC2E7A
:102C3000C8010C2E02C0959587950A94E2F780FD95
:102C40000CC02197A0F7F12C8F2DDF91CF911F9110
:102C50000F91FF90DF90CF900895B6018C2F0E94C6
:102C6000F9150E94130A019761F3EECFCF93DF931A
:102C7000EC010E940716BE010E94F9150E94130A7A
:102C8000DF91CF910895FC0124812223C1F080813E
:102C900091810E94361692959F70963091F058F46B
:102CA000925F9F70923058F4803F19F030F4883E64
:102CB00030F481E008959A5FF4CF843FD1F380E04F
:102CC0000895883EB0F3813FD1F7F3CFA6E0B0E09E
:102CD000ECE6F6E10C94D53349835A8349815A8155
:102CE0009923A1F0222391F0CA010E940716182F00
:102CF000682F89819A810E94560B69817A81812F80
:102D00000E94F9152696E3E00C94F133CA010E9463
:102D1000220B182FF2CF88E290E00E949A34682F9D
:102D200070E090E080E0089585E290E00E949A349F
:102D3000833289F486E290E00E949A34803159F41B
:102D400087E290E00E949A3491E0803309F090E0AD
:102D5000892F8170089580E0FCCFB0E0A0E0E3EB24
:102D6000F6E10C94D0336C017B0164E670E088E7F7
:102D70000E9410318C01E601EC0CFD1C17FD0BC00C
:102D8000FE01849164E670E00E947C318C01219602
:102D9000CE15DF0599F70E94F23181E0011511058A
:102DA00009F080E0CDB7DEB7E8E00C94EC33809119
:102DB0009F039091A203911103C091E08927089588
:102DC000882369F062E070E081E494E00E94AD162F
:102DD000811103C080919F03089510929F038091F9
:102DE0009F03EBCFCF93C0919F038091A2038823D1
:102DF000D1F00E94D107605A75418F4F9F4F609369
:102E00009B0370939C0380939D0390939E03C11139
:102E100008C062E070E08FE394E00E94AD1681117B
:102E200005C0C0919F038C2FCF91089581E08093BE
:102E30009F03F7CFB0E0A0E0E0E2F7E10C94CC33E1
:102E400049015A016B017C010E941A088401A40106
:102E50006A2D7B2D88E090E00E94D03494014A2DA9
:102E60005B2DB601C70100E20E945334622F84E259
:102E700090E00E94BE34CDB7DEB7ECE00C94E833AE
:102E8000A3E0B0E0E6E4F7E10C94CF33F82EE62EB1
:102E9000042FC22E9091700390FF44C020917103C3
:102EA000281308C080917203861304C080917303B5
:102EB000841729F08091BA0282608093BA02E92FC8
:102EC000E695AE2FB0E0A057BE4F8C918093B8022C
:102ED0009E7F923059F5402F073908F046E99E0150
:102EE0002F5F3F4F6E2D8F2D0E9430084B816981DF
:102EF0008A810E94D113F0927103E09272030093D1
:102F00007303CC2079F02091700360917403709169
:102F100075033F2D4E2D502F8091760390917703AE
:102F20000E941A172396E9E00C94EB33823019F4CF
:102F300000917303E0CF8630B9F18930A9F1823175
:102F4000D1F6E2516E2F6170B62EE695F0E0E65CA8
:102F5000FC4F1491D12C60917A01D61618F00E9482
:102F6000BE12C9CFD19EC001112470E00E94B233BD
:102F70008F2DB11017C0860F20917801622F6D0D33
:102F80007727771F9B01220F331F260F371F2554EA
:102F90003D4F402F073908F046E96E2D0E9430085A
:102FA000D394D9CF861BE8CFF22EA5CFE0E7F3E08C
:102FB00043812FE0421B08F440E021E062818181DF
:102FC0000E9440170895E0E7F3E043812FE0420FAD
:102FD00008F44FEF21E0628181810E94401708953B
:102FE000E0E7F3E0628121E1621B08F460E021E0A8
:102FF000438181810E9440170895E0E7F3E06281F8
:1030000021E1620F08F46FEF21E0438181810E948A
:1030100040170895E0E7F3E0818121E04381628178
:1030200081510E9440170895E0E7F3E0818121E09B
:10303000438162818F5E0E944017089580917403DE
:10304000882319F08150809374032091700330918C
:1030500071034091720350917303609174037091F6
:10306000750380917603909177030E941A17089553
:1030700080917403833018F48F5F809374032091E0
:10308000700330917103409172035091730360910A
:1030900074037091750380917603909177030E9479
:1030A0001A170895E0E7F3E083E0808311828FEF41
:1030B000828386E983831482A8EBB2E012968C9116
:1030C0001297836012968C93758123E030E04FEF66
:1030D00056E960E0868197810E941A1708959091C1
:1030E000830292FB222720F9281779F080FB92F9BE
:1030F00090938302609182027091830284E090E059
:103100000E94DC3482E00E94F10B089590E080E0A0
:103110000E94A834863E9E4F19F40E94941608958A
:1031200080E00895B0E0A0E0E8E9F8E10C94D13344
:103130007901C82F880FDD0B41155105A9F0FE015B
:1031400093E0EE0FFF1F9A95E1F7EF5FFE4F81814D
:103150009281855F9D4F208130E04217530708F42C
:103160009A01A9010E949134CE010E943C33D82ECD
:103170008823D1F001151105B9F083E0CC0FDD1FD4
:103180008A95E1F7FE01EF5FFE4F438150E004179F
:10319000150708F4A801CF5FDE4F6C817D81655F64
:1031A0007D4FC7010E9491348D2DCDB7DEB7E7E08A
:1031B0000C94ED33A5E0B0E0E0EEF8E10C94CE33F2
:1031C0008D83E62E5A01F22E6801809173028A30B7
:1031D00028F080E02596EAE00C94EA338D8188306F
:1031E000C4F31A8219828A836B832C8363E070E0B4
:1031F000CE0102960E94F7078983E0922901F0929E
:103200003C0110E000E030E020E044E050E0BE018E
:103210006F5F7F4F84E00E9492188823D1F24E2D79
:1032200050E030E020E0B50185E00E94921888234C
:1032300081F230E020E041E050E0BE016B5F7F4F63
:1032400086E00E949218882321F20F2D10E096014B
:1032500050E040E070E060E087E00E949218BACF52
:10326000ABE0B0E0E6E3F9E10C94D43388E0E0E7CA
:10327000F3E0DE01119601900D928A95E1F78091BD
:10328000B8029091B902A091BA0289879A87AB8758
:103290002B8540916F025091700260917102709184
:1032A00072023FB7F8948091A6039091A703A09172
:1032B000A803B091A9033FBF841B950BA60BB70BC6
:1032C00084369105A105B10510F42223C1F010E068
:1032D00000E030E020E04BE050E0BE016F5F7F4F48
:1032E00083E00E949218882369F00E94D1076093BE
:1032F0006F02709370028093710290937202109229
:10330000BA0281E02B96E4E00C94F033A4E0B0E044
:10331000ECE8F9E10C94D43340916B0250916C02CB
:1033200060916D0270916E022FB7F8948091A603A0
:103330009091A703A091A803B091A9032FBF841B6C
:10334000950BA60BB70B11E084369105A105B105CD
:1033500018F10E94A1146E5F7F4F8F4F9F4F6983BA
:103360007A838B839C8310E000E030E020E044E02F
:1033700050E0BE016F5F7F4F82E00E949218182FCD
:10338000882351F00E94D10760936B0270936C0206
:1033900080936D0290936E02812F2496E4E00C944A
:1033A000F033A5E0B0E0E7EDF9E10C94D2337B0116
:1033B00001E010E09E012B5F3F4F50E040E070E0E5
:1033C00060E080E00E949218182F882309F456C00C
:1033D00040916702509168026091690270916A029F
:1033E0002FB7F8948091A6039091A703A091A8030A
:1033F000B091A9032FBF841B950BA60BB70B843686
:103400009105A105B10548F464E070E08CE092E01C
:103410000E94F7079D81891789F104E010E09E0161
:103420002F5F3F4F50E040E070E060E081E00E949D
:103430009218082F64E070E08CE092E00E94F70799
:1034400011E09D81981310E0102331F10E94D10703
:1034500060936702709368028093690290936A0296
:1034600089819A81AB81BC818093630290936402CD
:10347000A0936502B093660211E00EC080910C0229
:1034800090910D02A0910E02B0910F0289839A8350
:10349000AB83BC831111E4CF8091630290916402ED
:1034A000A0916502B0916602F70180839183A283A7
:1034B000B383812F2596E6E00C94EE33A8E0B0E0CC
:1034C000E4E6FAE10C94D63366EE7EEF90E080E01D
:1034D0000E94DC3460E082E090E00E94BE3460E054
:1034E00083E090E00E94BE341092FD0160E074E140
:1034F00084E090E00E94DC3460E086E090E00E948E
:10350000BE346FEF87E090E00E94BE3440E050E0B0
:10351000BA0188E090E00E94D03460E084E290E05C
:103520000E94BE3460E087E190E00E94BE3460E01B
:103530008CE090E00E94BE3460E08DE090E00E945C
:10354000BE3419821A821B821C821D821E821F8237
:10355000188648E050E068E170E0CE0101960E94D4
:10356000AE3440E050E0BA0180E290E00E94D034F6
:1035700080E00E94A1150E94BA1540E050E0BA0117
:103580008FE090E00E94D03440E050E0BA0183E147
:1035900090E00E94D0342896E2E00C94F23328E0C8
:1035A00030E043E060E086E30E9438300895ACE00C
:1035B000B0E0EDEDFAE10C94D0334F835887698782
:1035C0007A878B879C878091FC03882399F00E94DF
:1035D000CF1A80E50E94B0308AEB8A95F1F700C0DF
:1035E0000E94C830887899278038910509F487C0EF
:1035F0000E94E0300E946B14882309F46BC00E9483
:10360000D1070091D3011091D4012091D5013091BF
:10361000D6016B017C01C01AD10AE20AF30A9701B4
:103620008601083011052105310508F453C0609367
:10363000D3017093D4018093D5019093D60100916A
:103640000A0410910B0420910C0430910D04601BAE
:10365000710B820B930B623371058105910580F428
:10366000109200041092FF031092020410920104C1
:1036700010920404109203041092060410920504A0
:10368000109109040E94BB14482FBE01695F7F4F4F
:103690008FEF93E0112309F45FC00E94140C009196
:1036A00009041091FC030E94BB1441E04827BE01AD
:1036B000695F7F4F83E094E0011709F450C00E94D6
:1036C000140C86E0FE013796A8E1B4E001900D925B
:1036D0008A95E1F786E0FE013796DE0111960190AA
:1036E0000D928A95E1F729813A814B815C816D8148
:1036F0007E8180E090E02C96E8E00C94EC330E9410
:10370000C8300E94C8307C010E94C83020E0E22A04
:10371000F82A0E94C8308C010E94C83020E0022B99
:10372000182B0E94E030F894B7018091FF0390912C
:1037300000040E94FB0C909300048093FF03B801E7
:1037400080910104909102040E94FB0C909302046A
:103750008093010478944ECF0E949A0CA0CF0E94CF
:103760009A0CAFCFCF93DF93D82FC62F0E94CF1ADA
:103770008D2F80680E94B0308C2F0E94B0300E9444
:10378000E0308FEC92E00197F1F700C00000DF918C
:10379000CF910895682F893708F068E76093070490
:1037A00091E0909308049091FC03992359F06150A3
:1037B000811101C064E08FE00E94B21B60E080E5EF
:1037C0000E94B21B0895FB0180810E94CA1B0895CC
:1037D00090910704911101C095E0282F880F330BB9
:1037E000A901490F511DCA011816190614F081E0EC
:1037F00090E00E94CA1B0895CF93C82F0E94CF1A51
:103800008C2F0E94B0308FE792E00197F1F700C053
:1038100000000E94C830C82F0E94E0309AE69A95B6
:10382000F1F700C08C2FCF910895CF93DF930E94C2
:103830003030269A0E94CF1A6AE58AE30E94B21BB2
:103840002FEF80E792E0215080409040E1F700C0E8
:10385000000082E00E94FC1B83E00E94FC1B84E0CD
:103860000E94FC1B85E00E94FC1B86E00E94FC1B62
:1038700060E080E10E94B21B80E00E94FC1BD82F18
:1038800081E00E94FC1BC82F0E94E030D23419F462
:1038900081E0C13009F080E081708093FC038823CF
:1038A00041F064E08FE00E94B21B60E080E50E947E
:1038B000B21BDF91CF9108951F920F920FB60F9216
:1038C00011242F933F934F935F936F937F938F9325
:1038D0009F93AF93BF93CF93DF93EF93FF93D091D9
:1038E000E900DF708091EC00C82FC17080FDC0E856
:1038F0001092E9008091F000877F8093F000789427
:103900000E94110F1092E9008091F000886080936E
:10391000F000CD2BCF70C093E900FF91EF91DF91C4
:10392000CF91BF91AF919F918F917F916F915F9157
:103930004F913F912F910F900FBE0F901F901895B0
:103940001F920F920FB60F9211242F933F934F9314
:103950005F936F937F938F939F93AF93BF93EF93F7
:10396000FF938091E10082FF09C08091E20082FF15
:1039700005C08091E1008B7F8093E1008091DA00A7
:1039800080FF24C08091D80080FF20C08091DA00A1
:103990008E7F8093DA008091D90080FF9DC080E106
:1039A00089BD82E189BD09B400FEFDCF81E080932D
:1039B000B8038091AA03811109C00E9461060E9488
:1039C00002078091E20084608093E2008091E10030
:1039D00080FF17C08091E20080FF13C08091E20059
:1039E0008E7F8093E2008091E20080618093E2000C
:1039F0008091D80080628093D80019BC85E08093C4
:103A0000B8038091E10084FF2BC08091E20084FF25
:103A100027C080E189BD82E189BD89B5982F917069
:103A200080FFFBCF8091D8008F7D8093D80080915C
:103A3000E1008F7E8093E1008091E2008F7E809391
:103A4000E2008091E20081608093E2008091B903FE
:103A5000882309F447C084E08093B8038091B803B9
:103A60008091E10083FF27C08091E20083FF23C0A3
:103A70008091E100877F8093E10082E08093B8032A
:103A80001092B9038091E1008E7F8093E1008091D4
:103A9000E2008E7F8093E2008091E200806180935B
:103AA000E20042E060E080E00E94D0068091F000F9
:103AB00088608093F000FF91EF91BF91AF919F914B
:103AC0008F917F916F915F914F913F912F910F90C7
:103AD0000FBE0F901F90189519BC1092B80310924A
:103AE000AA0374CF8091E30087FD93E09093B8031D
:103AF000B5CF78941F921FB61F9211248F939F9376
:103B0000AF93BF938091A6039091A703A091A803C0
:103B1000B091A9030196A11DB11D8093A6039093B6
:103B2000A703A093A803B093A903BF91AF919F915E
:103B30008F911F901FBE1F9018959C014FB7F8944E
:103B40008091A6039091A703A091A803B091A90327
:103B50004FBF821B930B08952FB7F8948091A60353
:103B60009091A703A091A803B091A9032FBF089536
:103B70002F923F925F926F927F928F929F92AF921D
:103B8000BF92CF92DF92EF92FF920F931F93CF934A
:103B9000DF938091A203882309F4D2C08091A0030F
:103BA0009091A1030E949D1DC29708F4AAC00E9493
:103BB000AC1D9093A1038093A00381E294E09093C5
:103BC0002806809327060E946B14882309F4D2C02C
:103BD000C091140483E894E00E94880E8091170439
:103BE0000E94C90C0E94080E8FE794E00E94880E84
:103BF000809116040E94C90C0E94080ECC2309F47F
:103C0000B1C08CE794E00E94880E8C2F82958F7053
:103C10000E94C90C0E94080E8C2F0E94C90C0E94A1
:103C2000080E8CEF8C0F853308F09CC088E794E079
:103C30000E94880E8C2F8450990BFC01ED5BFB4F8A
:103C400084910E94080E8FE994E00E94880E809172
:103C50001A040E94D00C0E94501280911B040E94F2
:103C6000D00C0E94501280911D040E94D00C0E9422
:103C7000501280911C040E94D00C0E94501286E9C0
:103C800094E00E94880E80910704811101C085E0B4
:103C90000E94D00C01960E94501280E994E00E948C
:103CA000880E80910904811161C080E30E94080E92
:103CB0008CE894E00E94880E80910E04811101C06E
:103CC00084E0805D0E94080E85EA94E00E94880EE0
:103CD000C1E0D0E080917803882309F449C090E0E6
:103CE0000C2E02C0959587950A94E2F780FF40C09C
:103CF0008C2F0E94C90C0E94080E2196C031D1055C
:103D000049F780911F0490912004892BC1F580917F
:103D10009F038823A9F00E94D10700919B03109173
:103D20009C0320919D0330919E03601B710B820BBD
:103D3000930B6F3F7F4F8F4F9F4710F40E94D71612
:103D4000DF91CF911F910F91FF90EF90DF90CF9077
:103D5000BF90AF909F908F907F906F905F903F90BB
:103D60002F90089581E00E94960E6DCF81E39ECF43
:103D70008FE5C1CF8CEA94E00E94880EC2CF80917B
:103D8000A203882321F280919A038111C0CF0E945F
:103D9000F21620911F04309120042115310509F4F9
:103DA000B6CF80E041E050E0082F10E01A01082E65
:103DB00002C0220C331C0A94E2F7B1016223732380
:103DC000672B11F48F5FF0CF9091990390FF95C00E
:103DD000880F880F880F8093700110927301895F9C
:103DE0008093710183E08093740124E630E047E022
:103DF00050E06EE671E088E70E94AA31892B09F055
:103E000086CFA80125E0440F551F2A95E1F7809140
:103E1000990380FF84C0E9E7F3E080E2EF011992A3
:103E20008A95E9F7A0EBB1E00CEA11E084EBC82E2B
:103E300081E0D82E97E0592E772473948D91F80164
:103E400021918F01240F352F311D2F5D3B4FE82F1E
:103E5000F0E0E758FC4F90E080E0652C681A872C72
:103E6000082E01C0880C0A94EAF77901A12CE70119
:103E7000B9907E01B820662D6A196770962E062EBD
:103E8000000C770BDB2D01C0DD0F9A94EAF77195DA
:103E9000619571096770772701C0B6946A95EAF752
:103EA000BD2A6081962E9B289082A39468E0A6127A
:103EB000DECF019631968830910579F6CA16DB0679
:103EC00009F0BCCF04E610E020E230E049E753E01F
:103ED00060E488E70E94CB31892B09F018CFE1011B
:103EE000C095D09580911F0490912004C823D923B8
:103EF000D0932004C0931F040ACF8295880F807648
:103F000080937001980136952795369527952093D3
:103F10007301815E809371012093740166CF4F5DC0
:103F20005B4F04E610E020E230E0D2CF0E946B1439
:103F3000882319F00E94AC1D08950E94A114CB01A2
:103F4000089560917003669570E04BE050E081E663
:103F500091E00E947734892B19F481E08093B902B3
:103F60000E94961F9093B3028093B2028091BA028E
:103F700084608093BA0208959091700390FF39C0D5
:103F80009170811137C09260909370038091BA0252
:103F900081608093BA02662391F020917003309182
:103FA0007103409172035091730360917403709197
:103FB000750380917603909177030E941A176091A0
:103FC0007003669570E04BE050E081E691E00E945E
:103FD0007734892BB1F00E94130881E08093B502F9
:103FE00020E04091730360917203809171030E94FD
:103FF000401708958C3110F09663C6CF880F982B28
:10400000C3CF0E94A11FE9CF809170038695815094
:1040100009F48BE161E00E94BC1F08958091700358
:1040200086958F5F8C3108F081E061E00E94BC1FB3
:1040300008959091700390FF08C09695981728F006
:10404000961718F40E940E20089561E00E94BC1F8C
:104050000895A8E0B0E0EFE2F0E20C94C8338C01E0
:10406000DC0114968C911497882309F4BEC021E0DA
:104070004C9111965C91119712966C911297139630
:104080007C91139715969C910E9466167C01F8010D
:104090008581882309F46AC1C70197578038910543
:1040A00008F064C1FFE0FE1508F48FC08FEF93E0C5
:1040B0000E949A34811189C069EAA62EBB24B39468
:1040C000E1104DC0FE01339686E0DF011D928A9516
:1040D000E9F75AE0452E7501BFEFEB1AFB0AC5015F
:1040E0000E949A3489831A82882309F46EC0813031
:1040F00009F07FC06501E2E0CE0ED11CC7010E942D
:104100009A348A83882309F460C09FEF980F933014
:10411000A0F5F3E0AF0EB11CC6010E949A348B8368
:10412000882309F452C01C82DE0111967D01F7013B
:104130002081222381F2213009F0BAC0918182814D
:10414000913009F058C0F2E0EF0EF11C65E070E02C
:10415000893311F460E570E00E94001553C0A1148A
:1041600024E0B20691F1C5010E949A34811101C088
:10417000EA943FEFA31AB30AA3CF56018430A1F605
:1041800042E0E42EF12C56012FEFA21AB20AC6012A
:104190000E949A34E1E0F0E0EC0FFD1FEE0DFF1DF0
:1041A0008083882391F08C3741F4E2E0F0E0EC0F5B
:1041B000FD1FEE0DFF1D1082B7CF3FEFE31AF30A8C
:1041C000650187E0E816F104F1F68091F20187704D
:1041D00061F0D80115968C91882339F08091830283
:1041E00082FF03C082E00E94F10B2896E0E10C946C
:1041F000E433570199CF923039F522E0E20EF11CF9
:104200000E940E12FFEFEF1AFF0A8FE99FE001975D
:10421000F1F700C00000AFE9BFE01197F1F700C06F
:104220000000EFE9FFE03197F1F700C000008FE9EF
:104230009FE00197F1F700C00000AFE9BFE01197E0
:10424000F1F700C0000073CF933031F432E0E30E99
:10425000F11C0E94E211D6CF943021F08FEFE81AC2
:10426000F80AD0CF92E0E90EF11C30E020E0B7016F
:104270006F5F7F4FD70111964C918053990B8A3015
:10428000910558F02150310908F4BCCFEFE9FFE067
:104290003197F1F700C00000F5CF429EF001439E38
:1042A000F00D11249C012E0F3F1F842F7B01DFCFC7
:1042B000E22FF0E0E557FE4F5490822F86958695C9
:1042C000869590E0FC01E558FE4F64902770712CB4
:1042D000022E02C0759467940A94E2F731E06322DB
:1042E0007724FC01E559FE4F8490912C022E02C0E8
:1042F000959487940A94E2F7A1E08A229924FC011C
:10430000E55AFE4FC490D12C02C0D594C7942A958B
:10431000E2F7B1E0CB22DD246114710419F081EEE3
:104320000E940E128114910419F086EE0E940E1262
:10433000E9E365E070E05E1202C060E570E0852DA3
:104340000E9400158114910419F086EE0E94E2117A
:104350006114710419F081EE0E94E211C114D104BC
:1043600009F450CF65E070E08CE2F6CEF0921504CF
:10437000E0921404F8018081918190931704809356
:104380001604C7019A9581159F41D0F4F701FF27C4
:10439000D80115968C91E13DF10540F0E93DF1051C
:1043A00088F0E730BEE7FB0709F450C0882371F0BE
:1043B000FE57EA30F10550F4E250FB4C0C942B34DC
:1043C000F701E6CF682F8E2F0E94F10DF80185814D
:1043D000F6E1EF16FCE7FF0609F066C0882309F452
:1043E0004EC08091AB038A7A91E009F490E09093FB
:1043F000D70169E2811165E386EC91E00E94DD0757
:104400000E94C80EE2CE80E00E94CA1B10920E04E9
:10441000DCCE4091070450910E0450FB47F95695AD
:10442000537060E070E08FE090E00E94D034CDCE19
:1044300081E00E94E81BC9CE8FEFFBCF8AE0F9CF65
:1044400086EFF7CF9091090481E089270E94A10BA4
:10445000BCCE80910E04811101C084E08F5F1816DC
:104460000CF081E0883008F087E080930E04ADCE38
:1044700080910E04811101C084E08150F0CF8091C1
:10448000D70181110FC089E2E8ECF1E02EEC31E0B8
:104490009191891303C0DF0111971C922E173F07DA
:1044A000B9F7AECF85E3F0CF811127C38091AB037D
:1044B0008272F701E052F847E531F10508F076C065
:1044C000E85FFA4C0C942B348091700380FF1EC07F
:1044D000282F2E7F20937003309171034091720337
:1044E000509173036091740370917503809176030A
:1044F000909177030E941A170E9413088091BA02C4
:1045000081608093BA020E94BE125FCE8160809368
:10451000700361E086950E94BC1F57CE44E050E2D4
:104520006EE070E20E940D0850CE4EE050E264E072
:1045300070E2F8CF4AE058E164E178E1F3CF44E17A
:1045400058E16AE078E1EECF40EF57E16DEF77E1B7
:10455000E9CF4DEF57E160EF77E1E4CF46ED57E16A
:1045600063EE77E1DFCF43EE57E166ED77E1DACF37
:104570004EE158E168E378E1D5CF48E358E16EE1D8
:1045800078E1D0CF61E081E0C6CF65E082E00E94B3
:1045900019201BCE68E086E0FACF6EE089E0F7CF05
:1045A00061E18FE0F4CF6BE182E1F1CF27E7E21622
:1045B0002CE7F20609F460C038E7E3163CE7F3069F
:1045C00009F45EC0F8018581E080F180882309F458
:1045D0009FC0C7010E940716D82E682FC7010E94EE
:1045E000560BB7018D2D0E94F9150E94130A7C010C
:1045F000882ED8011596AC90159716969C9092949B
:104600003FE093228091F2018770F1F0CA2CAA203A
:10461000E1F08F2D807F803451F080E28E0D883064
:1046200098F0911004C08F2D807E803269F08091C7
:10463000830282FF09C082E00E94F10B8091F201A7
:104640008770CC24C3948111C12CBF2CB2942FE06D
:10465000B222BBE0BB1508F4C3C0EB2DF0E0E35E73
:10466000FA4C0C942B3481E00E94080C43E062E089
:1046700081E00E94C40BA9CD81E00E94E40BF6CF3B
:1046800082E0FBCF83E0E8168CE7F80671F160F476
:10469000E114ACE7FA06D1F0B1E0EB16BCE7FB069B
:1046A00009F090CF0E941615EBE5EE16ECE7FE063A
:1046B00069F1FCE5EF16FCE7FF06F1F02AE5E216EA
:1046C0002CE7F20609F07ECF81E01DC01092AB030B
:1046D0000E94050F3FEF84E39CE031508040904002
:1046E000E1F700C000000E94C0076FEF7FEF90E08D
:1046F00080E00E94DC34D6CF8091830282FB882741
:1047000080F991E089270E946F185CCF80E0FBCF91
:10471000C7010E94220BD82E64CFEF2DEF70DE2E42
:104720008F2D807F19F0D29490EFD922AA20B9F072
:10473000DD2069F080E28E0D883010F0811009C014
:104740008091AB03D82AD092AB030E94C80E8E2D65
:1047500045C08091FC01D82AD092FC01F6CF8E2D65
:104760000E94E211DD20E1F180E28E0D883010F030
:10477000811004C08D2D0E94110B06C0D094809131
:10478000FC01D822D092FC010E94C80E29C0FF2D46
:10479000FF70DF2E8F2D807F803219F0D29480EF52
:1047A000D822882059F021E0821609F481C0AA207D
:1047B00009F48DC0992009F44FC0C9CF80918302BC
:1047C00082FD46C0AA20F1F1DD2039F08091AB03D3
:1047D000D82AD092AB030E94C80E80E00E940E122D
:1047E000AB2DA850BB0B149710F40E949014CC2052
:1047F000A9F08091F20180FD11C0F8011582869523
:10480000869586950E94080CC8010E9429208091F7
:10481000F2018695869586950E94E40B20E0D801EA
:104820004C9111965C91119712966C911297139678
:104830007C91139714968C91149715969C910E94D5
:104840006616D3CC80E00E94E211DD2049F292CFBF
:10485000AA20A1F0911004C08D2D0E94D811C0CFC4
:1048600031E09312BDCF8091FB019D2D9823D91685
:1048700009F4B6CFD82AD092FB01B2CF9110B0CFB5
:104880008D2D0E94D1119091FB018D2D892329F04E
:104890008D2D809589238093FB018091D8019D2DDA
:1048A000982309F49DCFD094D822D092D80198CFE4
:1048B000AA2029F085E0891508F492CFCDCF94E0A5
:1048C000991508F48DCF8D2D0E94D11189CF992093
:1048D000D1F3A9E38A1209C1BFEFE7EEF3E0B150CB
:1048E000E040F040E1F700C000008E2D0E94E21190
:1048F00077CF6A2D8E2D0E94F10D72CF8F2D837090
:1049000091F5A1106DCF4E2D429546954770440FFD
:10491000440F8E2D8F70042E01C0880F0A94EAF781
:104920002E2D2071E4FE07C02FE030E001C0220FE1
:104930004A95EAF720953F2D3695369533703230FB
:1049400069F050F44091FD01313029F0822B84232D
:104950000E948D0B45CF842B822BFACF282B809180
:10496000FD018227F5CF8695AA2011F08F2D817049
:10497000882309F435CF4E2D429546954770440F54
:10498000440F8E2D8F70042E01C0880F0A94EAF711
:104990002E2D2071E4FE07C02FE030E001C0220F71
:1049A0004A95EAF720953F2D36953695337032308B
:1049B00069F050F440917803313029F0822B842340
:1049C0000E94B50B0DCF842B822BFACF282B809120
:1049D00078038227F5CF9F2D9F70F92EAA2029F00A
:1049E000892F0E94080C8E2D38CF8E2D0E94D11158
:1049F0008F2D0E94E40BF4CE8E2DA2EF8A16B1F11A
:104A0000A81570F0B0EF8B16D1F0E1EF8E1691F093
:104A1000AA2009F45EC091109ACE8F2D8F712AC002
:104A2000F3EF8F1651F124EF8212F2CF80918302BF
:104A300082FD2FC08F2D8F71AA20D9F21BC0AA2012
:104A400081F034E0391508F4CBCE2F2D2F7181E0A1
:104A500090E001C0880F2A95EAF7909178038927A2
:104A6000AFCF85E0891508F4BBCEEFCF8F2D8F71C6
:104A7000A110BFCF0E94080CB3CE80E0AA2009F499
:104A80009FCF9F2D9F7181E001C0880F9A95EAF713
:104A900097CFAA2099F09F2D9F71F92E892F0E9400
:104AA000080C8091830282FF07C0A8E0FA9EC00133
:104AB000112483608093F2018F2DDCCF81E00E946E
:104AC000F10BB1E0B91508F08BCE82E00E94F10B3A
:104AD00087CE992079F0893341F4EFEFF7EE23E0A8
:104AE000E150F0402040E1F7FECE8FE19EE40197D7
:104AF000F1F7F9CE8F2D8F717CCFB7E7EB16BCE7BE
:104B0000FB0609F4B0CDE8E7EE16ECE7FE0609F087
:104B1000B9CD82E0A9CDCF93DF938091F101807F61
:104B200009F04DC08091F001882309F448C0E0915C
:104B3000FB035091C203C091EC01D091EB01609155
:104B4000ED017091EE0147E05E17C9F18E2F90E004
:104B5000E49FF0011124ED53FC4F2481222391F1B5
:104B6000489FF001499FF00D1124DF01AD53BC4F68
:104B700011962C9111972C1325C02C912D1322C026
:104B800015962C91159721111DC012962D913C91CF
:104B9000261B370B24363105A8F48091F1018F7064
:104BA00080618093F101E753FC4F80818F708061B9
:104BB00080838BEE91E00E9429200E94180BDF91E8
:104BC000CF910895FC013196E770BECFA4E1B0E02B
:104BD000ECEEF5E20C94CC338C0186E0F801DE01BA
:104BE0001F9601900D928A95E1F7F8018481E58086
:104BF0009BEEA92E91E0B92E9091EF01911128C062
:104C0000882319F1EE20F1F0C8010E944316F82E16
:104C10008823C1F087E0F801D50101900D928A95B3
:104C2000E1F78091EF01813031F48091EB019091B7
:104C3000EC010E9436160E948B258F2D6496ECE0C5
:104C40000C94E833C8010E942920FF24F394F5CF87
:104C5000D080C18082809380F090F0012091ED019E
:104C60003091EE01A401421B530BFF2009F4D9C07F
:104C70004436510508F092C08823F9F29091EC0176
:104C80008091F101282F207F09F056C0C91214C06D
:104C90009091EB01D91210C0E11048C08F70806173
:104CA0008093F1018BEE91E00E9429208091F10127
:104CB000F8018683F12CC1CFE11038C06C2D8D2D09
:104CC0000E9442066C2D8D2D0E944206E82E811115
:104CD000F1CFDF86C88A8F8598890E943616292FE2
:104CE00022952F70243058F49F70223088F0992339
:104CF00099F0F8019681907F79F4FE2C9ECF2A5F7F
:104D00002F70223068F0C8010E942920EF2CF5CFC7
:104D1000992311F0882389F3805E883070F3F3CFF4
:104D2000803F58F3815F833070F7E7CF8091F101C6
:104D300081608093F101BECFC91207C09091EB0151
:104D4000D91203C0EE2009F48DC0C8010E94431699
:104D5000882309F477CFEE2009F474CF8091F10114
:104D6000803288F02091EB013091EC01398728875F
:104D70009B868A869091EF019C871D868E87CE0147
:104D800008960E94292087E0F801ABEEB1E001907F
:104D90000D928A95E1F70E948B2557CF9091F101F2
:104DA000292F207F51F48BEE91E00E94292087E08B
:104DB000F50111928A95E9F77DCF882309F43DCF5B
:104DC0008091EC018C1110C08091EB01D8120CC0C5
:104DD000E1100AC09683C8010E94292087E0F501EE
:104DE00011928A95E9F729CFC8010E9443168823BA
:104DF00009F428CFEE2009F425CF8091F10180320B
:104E000010F22091EB013091EC013A8329839C82CE
:104E10008B829091EF019D831E828F83CE0101963C
:104E2000B0CF44365105D0F6882309F40ECFFE2CBE
:104E3000EE2009F407CF8091EC018C1120C0809105
:104E4000EB01D8121CC08091F10180FD0FC0982F9A
:104E5000907F61F08683903F31F0982F907F905F34
:104E60008F70892B8683C8010E94292087E0F80172
:104E7000ABEEB1E001900D928A95E1F7DECEC8016C
:104E80000E94431681117FCF8091F1018160809350
:104E9000F101C8010E942920D0CEABE1B0E0E3E5EA
:104EA000F7E20C94D4334E8B5F8B688F798F8A8FA7
:104EB0009B8F192F91111092FC011D8A86E0FE0133
:104EC0007696DE011F9601900D928A95E1F70A8D84
:104ED000002341F021E04F85588969897A89C8010A
:104EE0000E9466160B8B1C8B87E0FE013F96DE014D
:104EF000189601900D928A95E1F7CE0108960E94CE
:104F0000E62581110CC087E0FE013896DE0111967E
:104F100001900D928A95E1F78C8581110BC017E005
:104F20008091FB039091C203891333C06B96E4E038
:104F30000C94F0332091C20330E0C90101968770D0
:104F400099274091FB034817190699F097E0929F23
:104F5000D001939FB00D1124AD53BC4FFE0131968B
:104F600001900D929A95E1F78093C2030E94180B6D
:104F7000D6CF1092AB030E94050F1092C20310927D
:104F8000FB0387E0EBEEF1E0DF011D928A95E9F784
:104F9000C6CF819FC00111248D539C4F0E94E625EE
:104FA000882321F28091FB0390E001968770992776
:104FB0008093FB03B5CFA3E1B0E0E1EEF7E20C9400
:104FC000CB338E01045F1F4F88E0D8011D928A9574
:104FD000E9F78EE7C82E81E0D82EF12CE12CAA2427
:104FE000A394B12C28E8822E21E0922EF601819123
:104FF0006F018F3F09F442C0F894E82FE295EF70FB
:10500000F0E021A18F70A50102C0440F551F8A95C1
:10501000E2F7CA01922F982B91A392A18095892340
:1050200082A3789400C0E2E8F1E0712C31E0219194
:105030002F3F09F46BC0A22FA295AF70B0E09096FD
:105040008C9190E02F7002C0959587952A95E2F794
:1050500080FD5CC0832F782A330F8E169F0639F7A8
:10506000F601319780818F3F11F00E940B0950EAC1
:105070005A95F1F7F801EE0DFF1D70828FEFE81AD7
:10508000F80AA4E0EA16F10409F0B0CF48E050E0D5
:10509000B80188E792E00E948434009741F028E04C
:1050A000F801A8E7B2E001900D922A95E1F700918E
:1050B0008102892B69F181E0809302020E94AC1D7C
:1050C000909301028093000280910002909101026E
:1050D0000E949D1D059700F110E00E561D4F44E003
:1050E00050E068E772E0C8010E948434B12C892B3B
:1050F00051F084E0E8E7F2E0D80101900D928A9542
:10510000E1F7BB24B3941092020207C080E0A3CF62
:10511000809102028111D8CFB12C0E946B14A82E6D
:10512000E0918102882309F47DC019821A821B82D2
:105130001C820E2F10E00E561D4F809173028A3094
:10514000D8F541ED59E1BE016F5F7F4FC8010E9464
:105150003814882309F455C046E859E1BE016F5F51
:105160007F4FC8010E943814882309F44AC040E3E5
:1051700059E1BE016F5F7F4FC8010E943814882338
:1051800009F43FC0109273028091800290E044E0E5
:1051900050E0BE016F5F7F4F8E569D4F0E9484345A
:1051A00021E020930902892BF1F4A12C8A2D8B296F
:1051B0006396EDE00C94E733809103029091040232
:1051C0000E949D1D843F914008F0BBCF8091090251
:1051D000882359F384E0FE013196DF011D928A9500
:1051E000E9F710920902E0918002F0E0EE56FD4FDF
:1051F00089819A81AB81BC8180839183A283B383AF
:10520000D5CF809173028F3F31F08F5F809373020F
:105210008A3008F4B9CF0E94AC1D909304028093A9
:105220000302D4CFF0E0EE56FD4F84E0ACE0B2E0F4
:1052300001900D928A95E1F764E070E08CE092E0D5
:105240000E94F70780930B02C0901002D0901102C9
:10525000E0901202F09013028091050290910602F4
:10526000A0910702B0910802C816D906EA06FB060B
:10527000D1F0C0920502D0920602E0920702F092AD
:1052800008020E946B1481110EC00E94D107C61A39
:10529000D70AE80AF90AC0927402D0927502E09225
:1052A0007602F09277028BE0E4E1F2E0DE01119603
:1052B00001900D928A95E1F7809114028695F09005
:1052C0001502E0901602D090170200911D02109175
:1052D0001E0210921E02112309F468CF10FF0BC0AA
:1052E000998190FF1CC0909170039160909370031E
:1052F00060E00E94BC1F11FF06C020E04D2D6E2D06
:105300008F2D0E94401712FF04C0002359F00E9405
:10531000A11F13FF4BCF81E08093B50247CF0E94BE
:105320002914E9CF0E941308F4CFA6E0B0E0EBE91E
:10533000F9E20C94D4330E94AC1D8C018091FE01E3
:105340009091FF018017910781F019821A820E94C3
:10535000AC1D682F49815A81792F80E090E00E942E
:105360004D271093FF010093FE012696E4E00C9474
:10537000F0331F921FB61F9211248F939F93AF9308
:10538000BF938091A503811113C08091A6039091D2
:10539000A703A091A803B091A9034196A11DB11D37
:1053A0008093A6039093A703A093A803B093A903A7
:1053B000BF91AF919F918F911F901FBE1F90189525
:1053C000CDB7DEB7A6970FB6F894DEBF0FBECDBF40
:1053D00085B7806885BF85B7806885BF84B7877FBC
:1053E00084BF0FB6F894A89580916000886180937F
:1053F0006000109260000FBE80E890E00FB6F89455
:1054000080936100909361000FBE8AED98E09093C5
:10541000C5018093C4010E9461060E940207809129
:10542000E20084608093E20078948091B80388233E
:10543000A1F01091E9001F709091EC00892F81700C
:1054400090FD80E8182B1092E9008091E80083FD20
:105450000E94110F1F701093E90082E084BD93E059
:1054600095BD9AEF97BD80936E00109274021092D2
:10547000750210927602109277020E9494168111A2
:1054800002C00E94BA150E94BB1480930001809153
:105490000001882309F468C0109276018EE18093A0
:1054A00077010E946B1481110E945032809100019B
:1054B0008091000194E0811190E09093810284E05A
:1054C000891B8093800284EF0E940B0985EF0E9464
:1054D0000B0986EF0E940B0987EF0E940B0902E877
:1054E00011E0D8018D918D018F3F11F00E940B09C1
:1054F000B1E008381B07A9F788E0E2E9F2E0DF0134
:10550000682E1D926A94E9F7E8E7F2E0DF011D9248
:105510008A95E9F70E948618811102C00E945E1ADE
:1055200082E090E00E949A348093850284E090E0CB
:105530000E94A83490938302809382020E94DB270A
:10554000EFE3FCE93197F1F700C000000E94DB2790
:105550008091920280FF0CC06FEF7FEF90E080E0BF
:105560000E94DC340E94C0078EE18093760197CFC1
:1055700083E090E00E949A340E948D0B8091780322
:105580000E94900B91E0833009F090E0892F0E94F7
:10559000A10B0E946B14882309F48BC180E08093D7
:1055A000990380E880931E040E940A316BE070E04A
:1055B00082E292E00E94AD168823E9F1809199037E
:1055C00065E070E081FD77C18DE192E00E94AD164B
:1055D000882389F16DE070E08BE092E00E94AD16C7
:1055E000882349F10E94D107605A75418F4F9F4F20
:1055F00060939B0370939C0380939D0390939E0301
:10560000E1E2F4E080E092E0DF019C011D92215094
:105610003040E1F7F0932806E09327068FEF9FEFE5
:105620009093200480931F0481E08093A2038093D1
:105630009F0310929A0380918402811178C00E9486
:105640008618811104C00E945E1A0E94521888E0D8
:1056500090E00E94A2344B015C0184E290E00E9441
:105660009A34282F30E040E050E060E070E080E0C5
:1056700090E000E20E943834282939294A295B2920
:10568000209370033093710340937203509373031C
:1056900060937403709375038093760390937703FC
:1056A0008091BA0283608093BA022E7F89F50E94AE
:1056B000521888E090E00E94A2346B017C0184E2E1
:1056C00090E00E949A34282F30E040E050E060E003
:1056D00070E080E090E00E943834B22FA32FF42FC6
:1056E000E52F5B0197018601BC29A12BFE29E32B45
:1056F000B0937003A0937103F0937203E09373036C
:1057000060937403B092750380937603909377034C
:105710000E941A080E9413088091700380FF04C041
:1057200060E086950E94BC1F81E0809384020E9405
:105730006B14811102C00E9453320E94151C0E94FA
:105740006B1481112EC089EF94E1909348018093EE
:10575000470128E130E0309343012093420188E380
:1057600090E0909346018093450146EC58E05093B9
:10577000500140934F0130934B0120934A01909385
:105780004E0180934D0143EE5BE1509358014093ED
:105790005701309353012093520190935601809307
:1057A00055010E948618882389F08FE090E00E94BE
:1057B000A2348B01862F8F770E94CA1B001F0027FF
:1057C000001F1370110F102B10930E040E94D3149E
:1057D00089E591E09093A4038093A303E8E1CE2EA2
:1057E000D12CF0E4AF2EBB24B3948091B80300E138
:1057F00012E1853009F49EC00E94DB2706E812E022
:1058000062E9E62E62E0F62E78E8872E71E0972EA8
:10581000B4019701F8019191D9018D919D01DB01AE
:105820004D91BD018423B2E0EE38FB0709F48EC030
:10583000981789F30E946B14282E612CF701719040
:105840007F01D4018D914D017822F80131908F01B3
:10585000371429F13724512C44244394842D832177
:10586000B1F02220A1F059A26AA20E94AC1D9CA313
:105870008BA3BDA291E0842D872109F490E09EA323
:1058800049A15AA16BA17CA18DA10E944D275394DF
:10589000440CF6E05F12E2CFF80131977082639416
:1058A00058E0752E6710CACF0E94A1147724739414
:1058B00052C082E074CE88E192E088CE8091B80335
:1058C000843029F10E94D7160E94670D1092A5031B
:1058D0000FB6F894A895C09260000FBEA092600029
:1058E00083B7817F846083BF83B7816083BF7894EF
:1058F000889583B78E7F83BF0FB6F894A895809163
:105900006000886180936000109260000FBE8091FB
:10591000B703882379F00E94DB27E2E9F2E0A8E8E8
:10592000B1E081919D91892309F082C332E0EA3987
:10593000F307B9F78091B803853009F4BFCF10920F
:10594000AB030E94050F0E94901456CF981372CF9C
:105950000E949529712C0E946B148091B9028823B2
:1059600009F463C08091B802E0917003E695E81BEA
:10597000E093B402823009F064C0F0E0EA5CFD4FCD
:10598000E4910E2F10E045E1E42E44E1F42E8091E5
:10599000B502882361F01092B5020E94961F909381
:1059A000B3028093B2021092B7021092B6020E9424
:1059B000961FE091B202F091B3029C012E1B3F0BA7
:1059C0002F3F3F4790F5209190022223B1F0109293
:1059D000900220918E0230918F02821B930B8F3F99
:1059E0009F4758F4205D3A4830938F0220938E02EF
:1059F0008091BA0288608093BA028090B60290903B
:105A0000B702E00FF11FF093B302E093B20282EB12
:105A100092E0F70109958091B6029091B702892B27
:105A200021F4892811F0B09290020E94670D88231A
:105A300009F436C00E94A1140E94B81D0E94F216FB
:105A400033C0863059F4F0E0ED5CFD4FE4910E2F49
:105A500010E035E0E32E34E1F32E99CF893061F484
:105A6000E695F0E0E05DFD4FE4910E2F10E021E9B6
:105A7000E22E23E1F22E8BCF8F3059F4F0E0E35D7C
:105A8000FD4FE4910E2F10E099E0E92E93E1F92EFD
:105A90007ECF00ED17E08BEBE82E87E0F82E77CF76
:105AA0000E94B81D7110CACF0E949014909191026B
:105AB000891721F0809391020E94D1078091B80349
:105AC000843009F4DDC00E946B14882309F48DCE64
:105AD0000E94D1072091A00221116DC000919C026B
